:02000000522D7F
:0E000600213083120313FD00FD0B07280800B4
:100014000F3083120313FC004730FD00FD0B102842
:0A002400FC0B10280000000008008B
:06002E00000000000800C4
:100034007B15FB1F24280130F300F201F101F001CC
:08004400FA0DF20CFF30080078
:10004C0083120313F801F9011030FC00710DF80D47
:10005C00F90D7408F8027508031C750FF9020318E2
:10006C003E287408F80775080318750FF907031074
:0A007C00F00DF10DFC0B2C2808001C
:0E008600F201F101F001F801F3010030080071
:1000940083160313C61B5128831288125328831214
:1000A40088168316461B5928831208125B2883126C
:1000B40008168316C61A61288312881163288312CE
:1000C40088158316461A6928831208116B2883122F
:1000D40008158316341871288312081473288312A0
:1000E40008108814172088108316C6197C288312D8
:1000F40088127E2883128816831646198428831250
:1001040008128628831208168316C6188C288312B0
:1001140088118E2883128815831646189428831212
:100124000811962883120815831634189C28831204
:1001340008149E2883120810881417208810831628
:0C014400341CA6280A20A728032008006D
:08015000FA1FF2130030080051
:100158007B14FB1FB728F201FA1FFF30F200F100F1
:0A016800F000FA0DF20CFF30080061
:100172008316031334104108C6004A208316341430
:02018200080073
:06018400FB15FF3008002E
:10018A0083160313C401053044020318D328440814
:10019A004307840020308000C40AC8284408430763
:1001AA0084008001C40344084307C5000A30F400F0
:1001BA00F5014108F0004208F10026207808F00015
:1001CA007908F1003030F00783164508840070087A
:1001DA0080000A30F400F5014108F0004208F100FD
:1001EA00262070088316C1007108C200003071060B
:1001FA00031D012900307006031D04290629C403C2
:04020A00D8280800E8
:10020E00FB14FB1F1129FF30F300F200F100F00088
:08021E00FA0DF20CFF3008009C
:100226000E3083120313FD00FD0B17290000080092
:1002360083120313FB01FA01F9018030F800F10C77
:10024600F00C031C2F297408F90775080318750F9D
:10025600FA070318FB0A0310F01F37297408FA0778
:1002660075080318750FFB07FB0CFA0CF90CF80C54
:10027600031C22297B08F3007A08F2007908F100B2
:060286007808F0000800FA
:10028C00A0017208031D5B297108F2007008F100CF
:10029C00F001A0157208031D5B297108F200F10131
:1002AC00A01120167208031969292008F302031DF6
:1002BC00031C6D290310F21B7129F00DF10DF20DC9
:1002CC00F30B61296D290130FC00432074290230A5
:0E02DC00FC001A2074290430FC00A820080041
:0E02EA008316031326088A00250882000800E8
:1002F800831603133808831203178D0083168C1393
:0A0308000C1483120C08F00008002A
:10031200C330831203139F05C0309F008316380831
:10032200F000F00D7010F00D7010700883129F0431
:100332003409F000700883169F059F1783121F145B
:1003420013219F149F1CA7290000A3291F101E0818
:10035200F100F00183161E08F0040030F1040800D9
:1003620075218A110A128000840AA50A0319A60AB5
:08037200F003031DB12908008E
:10037A00831603131208013EF000F1010318F10A73
:10038A003808F400F5011B210630F2007008F40069
:10039A007108F50072080319D729F50CF40CF51346
:1003AA00FF3ED0290430F1007408F00071080319E7
:1003BA00E229F00D7010FF3EDC2930307005F300A1
:1003CA007408F0007508F100F10CF00CF113F10C4F
:1003DA00F00CF113700895000F3097057308970415
:0203EA00080009
:1003EC00831603130711831212150C30970408009F
:1003FC0083120313FB017308031D77080319552A95
:10040C0072087606FA007708F3077E30031C122A6E
:10041C00F3020318582A152AF302031C5B2A7208EC
:10042C00F8007108FC007008FD00F817F6170310AF
:10043C00F201F101F0011830A0007D1C2F2A740884
:10044C00F00775080318750FF10776080318760F77
:10045C00F207F20CF10CF00CF80CFC0CFD0C031078
:10046C00A00B232AF21B3F2AF80DF00DF10DF20D13
:10047C00F3037B1B701C512AF81F512AF00A031935
:10048C00F10A0319F20A031D512AF20CF10CF00CBB
:10049C00F30A0319582AFA1FF21300305D2A0130AF
:1004AC0043205D2A023007215D2A04301A20000007
:0204BC00080036
:1004BE00831203137008F8007108F000F101F201C5
:1004CE00F301FB01FC019630F300FA017008F10014
:0C04DE007808F000F801F2014621080047
:1004EA00872A803083160313B8009A2AC030B800CE
:1004FA009A2A9430B8009A2AD430B8009A2A8030BE
:10050A00B8009A2A831603133808013A0319762A7F
:10051A003808023A03197B2A3808033A03197E2A53
:10052A003808043A0319812A842A3903F000380862
:10053A00F0077008B80034147008C6004A20831601
:0E054A0034103A08C6004A2083163414080004
:10055800831203137408003A031DC72A7508003A6A
:10056800031DC72A7608003A031DC72A7708003AF0
:10057800031DC72AFF30F000FF30F1007F30F20082
:10058800FF30F300622B8312031377080319562BED
:1005980073080319592B720876068039FA00F21786
:1005A800F617A0017208F8007108FC007008FD0039
:1005B8007408FD027508031C750FFC027608031CFD
:1005C800760FF802F801FC01FD01031CF22A031062
:1005D800F20CF10CF00CF80C0130A0007708F302D3
:1005E800031CFC2A7E302007F30703185C2B012B21
:1005F8007E302007F307031C5F2B1830FA07FD0D28
:10060800FC0DF80DF00DF10DF20DA00D7408F002BF
:100618007508031C750FF1027608031C760FF202A9
:10062800760DA004201C1A2B7D14252B7408F007C6
:1006380075080318750FF10776080318760AF2078C
:100648007D10FA031F307A05031D032B7B1B7D1CCD
:100658004C2B0310F00DF10DF20DA00D7408F002F3
:100668007508031C750FF1027608031C760FF20259
:10067800760D20040139FD070318FC0A0319F80A4E
:10068800031D4C2BF80CFC0CFD0CF30A03195C2B16
:10069800FA1FF8137808F2007C08F1007D08F000D2
:1006A8000030612B0130C220612B02304320612BC6
:0E06B80004300721612B08301A2000000800D2
:1006C600831603138810081008118811081288125F
:1006D60083128810081088120812881108110A203F
:1006E6000A200A20881508158814172088100A2061
:1006F6008814172088100A208814172088100A20CA
:1007060008118814172088100A20881417208810CA
:10071600881188168814172088100A208812081550
:1007260088141720881008118814172088100A20AA
:1007360088141720881008158814172088100A2096
:1007460008118814172088108816081688150815A9
:0E0756008814172088100A2083163414080017
:10076400C42B803083160313B800D72BC030B800D5
:10077400D72B9430B800D72BD430B800D72B803087
:10078400B800D72B831603133808013A0319B32B87
:100794003808023A0319B82B3808033A0319BB2B5B
:1007A4003808043A0319BE2BC12B3903F00038086A
:1007B400F0077008B8007008C6004A208316341089
:1007C400BB013B083A07840000080319F12B3B08DE
:1007D4003A0784000008C100B920BB0AE32B341493
:0207E40008000B
:0E07E600831603130715F030831297050800E1
:1007F400831603178C1C002C0000FA2B03133808F3
:10080400831203178D008316031339088312031709
:100814008C0083168C130C150B08F0008B135530C9
:100824008D00AA308D008C14F01B1A2C8B131B2CFA
:060834008B170C110800F7
:10083A0001308312031386003430FC00F130FD00CE
:10084A00FD0B252CFC0B252C00000000061E302C6D
:10085A003130F000722C861E352C3230F000722CAA
:10086A00061F3A2C3330F000722C023086003430E6
:10087A00FC00F130FD00FD0B402CFC0B402C00006D
:10088A000000061E4B2C3430F000722C861E502CB1
:10089A003530F000722C061F552C3630F000722CC1
:1008AA00043086003430FC00F130FD00FD0B5B2C77
:1008BA00FC0B5B2C00000000061E662C3730F00093
:1008CA00722C861E6B2C3830F000722C061F702C8E
:0C08DA003930F000722C4030F0000800B3
:1008E60083160313BD01BE013808BF003908C000D6
:1008F60080303906F00080307002031D842C0030F1
:1009060038020318922C0130BD000030BE003808B2
:10091600003CBF003908031C013EC001C0023F086D
:10092600C1004008C2003A08C300C5200630BB001B
:100936000030BC003C08003C031DA32C3B08003CD7
:100946000318BE2C3B083A07F20001303B02F000C8
:100956000030031C013E3C02F10070083A07840097
:100966000008F00072088400700880000130BB02A5
:10097600031CBC039D2C3A088400203080003D08EF
:100986003E040319DC2CBB01BC013B083A0784007A
:100996000008203A031DD32CBB0A0319BC0AC82C35
:1009A6000130BB02031CBC033B083A0784002D3010
:0409B60080000800B5
:1009BA0083120313FB01730803191A2D7208FA0034
:1009CA00F2178E30F302F31F1D2DF309F30A0830D4
:1009DA007302031C002DF300F10D7208F100F201FD
:1009EA0008307302031C002DF300F10DF1017308A6
:1009FA00031D0310082D73080319082D0310F20CA8
:100A0A00F10CF30B032D7B1B711C122D031C122DF1
:100A1A00F10A0319F20AF21B292DFA1F2C2DF209E9
:100A2A00F109F10A0319F20A2C2DF201F1012C2D18
:100A3A007B14FB1F2F2DF201FA1F2F2DFF30F2001E
:100A4A00F100FA0DF20C2F2D0130FC00312D00308F
:100A5A00FC00312DFF30FC00FC080319352DAC20B9
:0A0A6A007108F0007208F1000800A6
:0C0A74008312031395011712971208005B
:100A800083160313B90139083807840000080319D5
:100A9000512D3908380784000008C100B920B90A6F
:040AA000432D0800DA
:100AA4004A2783160317890101308800F030860035
:100AB4000313870101308500831287018601121414
:100AC40092147C30831692003A2563230130C600C9
:100AD4004A200C308316C6004A201A30FC00F83035
:100AE400FD00FD0B732DFC0B732D000001308316EC
:100AF400B8000130B9002530BA00B2238312EE01E8
:100B040004306E020318952D6E088316B800831204
:100B14006E08213E840000088316B900FA2383126C
:100B24000313EE0A822D1D247008B3007008403AA6
:100B340003194A2E3208A03E840033088000013095
:100B44008316B800831232080C3E8316B900831250
:100B540033088316BA0075228312B20A3208033CA2
:100B640003184A2E0130EF00EE0104306E02031820
:100B7400D12D6E08A03E840000088316B7008312AE
:100B84006E088316B8007C21831603133708700699
:100B94000319CE2D8312EF018312EE0AB72D6F08CD
:100BA40003191E2E01308316C6004A200130831615
:100BB400B8000130B9004930BA00B22383120717D4
:100BC40087150630FB001330FC00AD30FD00FD0B33
:100BD400E92DFC0BE92DFB0BE92D0000000087112A
:100BE4000630FB001330FC00AD30FD00FD0BF82D8A
:100BF400FC0BF82DFB0BF82D000000000716063047
:100C0400FB001330FC00AD30FD00FD0B072EFC0B88
:100C1400072EFB0B072E00000000071207130130FC
:100C24008316C6004A2001308316B8000130B9008B
:100C34003C30BA00B223482E831287160130831643
:100C4400C6004A2001308316B8000130B9005E3076
:100C5400BA00B2230630FB001330FC00AD30FD00B7
:100C6400FD0B322EFC0B322EFB0B322E000000004B
:100C74008312871201308316C6004A20013083167E
:100C8400B8000130B9005130BA00B2238312B20166
:100C94004030B3008316B80189217008B50071088B
:100CA400B6005F22F630F4002830F5001C30F60060
:100CB4008130F700FE2170088316B0007108B1007E
:100CC4007208B2007308B3000030F4000030F5007D
:100CD4002030F6008230F700AC22DD247008831641
:100CE400AE007108AF007008B8007108B900A730F1
:100CF400BA0073240230B8000130B9003530BA00AC
:100D0400B223A730B80040252030C100B9204330B9
:100D1400C100B92080302F06F00080307002031D1E
:100D2400952E1E302E02031CA92E80302F06F000B3
:100D340080307002031DA02E20302E020318A92E2D
:100D4400F323CC308316B800BD218710EB2E8030FE
:100D540083162F06F00080307002031DB32E20305E
:100D64002E02031CC72E80302F06F0008030700244
:100D7400031DBE2E22302E020318C72EF323E630A5
:100D84008316B800BD218710EB2E803083162F0602
:100D9400F00080307002031DD12E22302E02031C7D
:100DA400DA2EF323FF308316B800BD218710EB2E13
:100DB400803083162F06F00080307002031DE42E6D
:100DC4001E302E020318EB2EF3238316B801BD2127
:100DD40087141A30FC00F830FD00FD0BEF2EFC0BDD
:0A0DE400EF2E0000F621952DF62EEB
:100E9400213084004D3083120313F000FC3083169C
:0A0EA400A5000630A600B1210800E9
:080DF800373437343734373447
:100E000045346E3474346534723420347034613453
:0A0E1000733473343A342034003494
:020E1A000034A2
:020E1C000034A0
:020E1E0030346E
:0E0E2000543465346D3470343D342034003465
:100E2E0045346E3474346534723420347034613425
:0A0E3E00733473343A342034003466
:100E480057344C34453443344F344D3445340034EE
:100E580045346E34743465347234203470346134FB
:0A0E6800733473343A34203400343C
:100E720057344F3452344E34473420345034413492
:100E820053345334573452344F34443421340034BD
:04400E00F22F000786
:00000001FF
